:100000000AC012C010C00FC00EC00DC00CC00BC083
:100010000AC009C008C011271FBFCFE5D0E0DEBF6E
:10002000CDBF06D0C1C1ECCF002309F414E0189570
:1000300033E031B934E033B97894989AA99A33E02F
:100040003BBB35E03ABFECEAF3E439E14DD188E758
:1000500059D180E057D1819155D13A95E1F74CD1F2
:1000600043D188E74FD180E44DD130E080E04AD1E0
:1000700080E048D13150D1F73FD130E034A935A9E3
:1000800036A900E030E032A938E731A93AE530A9D5
:1000900033EC3DBB83ED90E349D039B33C3C18F4DD
:1000A00010E000E0A1E0010F033110F01CEF03C0ED
:1000B000002309F410E060E070E08EE69FE73AD09C
:1000C000E4D033D163E073E080E09FE733D049D0E0
:1000D00062E072E080E09FE72DD06AD060E073E0DC
:1000E0008AE091E127D0802F98D03A2FA0E020A17C
:1000F0002F77203168F62A3058F220A12078203856
:1001000019F0083028F602C0332311F69FEF0ED005
:10011000EBD088E7F7D080E0F5D08DE8F3D080E130
:10012000F1D08EEAEFD0E8D088958DCF8150904005
:10013000E9F70895382FD8D088E7E4D080E0E2D0FE
:1001400081E2E0D0832FDED0892FDCD082E2DAD0CA
:10015000862FD8D0872FD6D0CFD008951820FEFC78
:10016000301EC2D088E7CED080E4CCD030E0C0E4EE
:10017000D0E05991252F5F77351781F4ECE5F1E454
:1001800065E02078203810F080E801C08191BAD075
:1001900033956A95B2F75991252F5F7780E8B2D0F1
:1001A0003395303849F7A8D00895080C083F1E0C45
:1001B0009BD088E7A7D080E4A5D030E0C0E4D0E0B1
:1001C0005991252F5F77351781F4EAEAF1E465E06C
:1001D0002078203810F480E001C0819193D03395CD
:1001E0006A95B2F75991252F5F7780E08BD03395D0
:1001F000303849F781D008951820FEFC301E74D0A5
:1002000088E780D080E47ED0E8EFF1E465E081917A
:1002100079D06A95E2F770D00895B82F65D088E755
:1002200071D080E46FD078E0A170AA2319F4EAE6D7
:10023000F2E402C0EAE7F2E420E030E0919151916B
:100240006B2F04C056959795379527956A95D2F7E9
:10025000822F58D0832F56D0892F54D0852F806875
:1002600051D07A9549F748D008950007000C007ED8
:10027000801FE07FD007700160000018003000F898
:10028000003C00FC0018001C001C33A1339533A96E
:100290003A3088F030E033A974A17B5F723350F0BC
:1002A00070E085A18B5F823320F080E096A19B5F98
:1002B00096A985A974A918D088E724D080E422D013
:1002C00086A105D085A103D084A101D015D090E0EE
:1002D000F3E4E6ECE80FF91F34E0819113D03A958E
:1002E000E2F780E00FD00895109A0000119A000004
:1002F000109800001198089510980000119A0000BD
:10030000109A089548E087FF02C0109A01C0109823
:10031000880F0000119A0000119800004A9599F783
:10032000109A119A00001198089520A131A142A1BC
:10033000522F632F742F5078607870782F773F7723
:100340004F77435085A18370481BBAF440E03035A5
:10035000A2F43C3352F087A18395482F440F8427A1
:10036000802787A940E08E3B40F048E770E087A1F6
:100370008170813010F0406870E8335085A183703F
:10038000381B1AF4342F672F40E02350281B2AF41F
:10039000232F562F342F672F40E0252B362B472B4A
:0C03A00020A931A942A90895F894FFCFCC
:1003AC00AEA81FD300402001DA028180D9F1DB40D6
:1003BC0022000321007F8D14AF007C8282827C009E
:1003CC0084FE800084C2A2928C448292926C30286B
:1003DC0024FE209E929292607C9292926002E21293
:0C03EC000A066C9292926C0C9292927C29
:0803F8005A79000000000067C3
:04000003000002E80F
:00000001FF
